:100000000C9499080C94C6080C94C6080C94C60865
:100010000C94C6080C94C6080C94C6080C94C60828
:100020000C94C6080C94C6080C94C6080C94C60818
:100030000C94303A0C94C6080C94C6080C94C6086C
:100040000C94C6080C947C2D0C94C6080C94C6081D
:100050000C94C6080C94C6080C94C6080C94C608E8
:100060000C94C6080C94073A0C94DD390C94C6081D
:100070000C94C6080C94C6080C94C6080C94C608C8
:100080000C94C6080C94C6080C94C6080C94C608B8
:100090000C94C6080C94C6080C94C6080C94C608A8
:1000A0000C94C6080C94C6080C94C6080C94C60898
:1000B0000C94C6080C94C6080C94C6080C94C60888
:1000C0000C94C6080C94C6080C94C6080C94C60878
:1000D0000C94C6080C94C6080C94C6080C94C60868
:1000E0000C94C6080C94411D0C9451300C94F524CA
:1000F0000C94A51B0C940C150C943D310C943C20D5
:100100000C948C2F0C9433290C947A2C0C941E1480
:100110000C948A240C947D230C94B81E0C94BE116C
:100120000C94BB2F0C94BD1C0C946E360C94AD1C1F
:100130000C9425170C944A190C94B41B0C94831C32
:100140000C9496100C94B61D0C94C5100C94873228
:100150000C9499330C9424130C94CF2E0C94FD1B07
:100160000C94FB160C94C92A0C945C1F0C94C023AD
:100170000C9410370C943A280C94971E0C94441647
:100180000C94A7270C94F2360C9464260C94DB1183
:100190000C9421300C940A110C94F0360C94002F1E
:1001A0000C9449340C94D6340C9477110C94BF29D8
:1001B0000C949C340C94ED140C94FC250C940624A3
:1001C0000C9476130C94F5220C9480220C94DB345E
:1001D0000C942A2D0C94AA330C94A22C0C94EA278C
:1001E0000C94F8120C94F7300C9459300C947E1542
:1001F0000C945C270C9407290C941D110C94811805
:100200000C94AA220C94DB290C94B71F0C94722531
:100210000C948F220C94E32F0C945C330C94A32940
:100220000C9406170C9433240C94E2350C94C324DC
:100230000C94D41D0C949D260C941D2F0C94B11B72
:100240000C94F4230C94B6200C9432330C94D139D2
:100250000C94BD110C94181C0C942F130C94B41F07
:100260000C94AD170C94F82C0C941E1E0C945A1C74
:100270000C94F9260C94E31204000200000400041C
:10028000000004070404000004040400000000004F
:100290000000040000000000040000020200000052
:1002A000020407000407070400000000040400041F
:1002B000040000040002020404040404000004001A
:1002C00004040404040404000400020304000404FD
:1002D000000400040000040004000000000000000E
:1002E0000001020102D702B41B020001000000A5B8
:1002F0001B030001000000B11B040001000000C549
:10030000100500010000000A11060100019B101DEC
:1003100011070001000000961008010001D602C973
:100320002A090001000000BD110A0201019610E334
:10033000120B030103D302BE110C020102D102F819
:10034000120D020002D702D6340E020002681041DC
:100350001D0F030003D3021E1E10020002D102B6BD
:100360001D11050005CC02D41D1202000268108C7C
:100370002F13010001D602E32F14020002D102BBA9
:100380002F150200026810002F16040004C802E2B4
:100390003517050005C302DB3418010001D602C081
:1003A0002319080008BB0233241A030003B8028A89
:1003B000241B02000268107D231C020002D10206E9
:1003C000241D0400048310C3241E010001D602F47E
:1003D000231F080008B0023D3120020002D102F7BD
:1003E00030210400036A10831C220300028710AD31
:1003F0001C230300028710BD1C2404000464105950
:100400003025010001D602513026030003AD022140
:100410003027060006A702181C28030003B8025A5A
:100420001C29050003A402AA332A040003A10249DF
:10043000342B030002871099332C04000464109CB1
:10044000342D0300039E02AD172E03000389103CD8
:10045000202F0600069802B6203006000692024AB7
:100460001931010001D602251732030003D302819E
:100470001833020002681006173403000287101EAA
:10048000143504000483105C1F36030003B802B85F
:100490001E37010001D602761338030003D302444D
:1004A000163902000268102F133A0300028710ED7C
:1004B000143B03000287107E153C06000692020CD6
:1004C000153D0300028710A3293E0300028710BFD9
:1004D000293F0800088A02DB2940020002681064F4
:1004E00026410500058502F9264204000490100704
:1004F000294302000268103329440400038202FCED
:1005000025450500057D029D2646010001D602878E
:100510003247040003791032334805000578025C45
:1005200033490400046410F82C4A030003AD022A86
:100530002D4B0001000000D1394C0005000000786F
:10054000DAA559098FDBC615FE2B8C00A34DB16BC4
:100550004814A9630BA3D82B891BAFBDB1BC75810F
:10056000A220B8E4481A985738E41E0DF6BFF71DCC
:100570007391929DA035608833F3DE1CEFF8DEB1F5
:10058000BF4DEE7B59E4C9836895AC2B35399BECA4
:10059000B2EC2CF8F38F9797DF07F1EBE8F534B85E
:1005A0009755DFC942E1ECFBBBE0420FBF0FC2D75A
:1005B000E1E275389D2DA6B3309E9C4CB2BA2CD387
:1005C0002A874D7E9BA44551676927925AE62AC81F
:1005D000EABEEADEBCCA2667AB1338B1EBE0A8245A
:1005E000CDBE04B00AD3DEFA22F208F2DC1034B534
:1005F000A21F59BD79D5074D5F1449DF30C3C23101
:10060000FCDA8BF6D9EE0917F882D4AD505DD2C969
:10061000EC8BE251D7A6952A659798530359C1FBF5
:10062000F5F931BCA310699BA87DDFE5F563353989
:100630000BF169D556EEE0464FC53C8ACD11AA9123
:10064000097F4ECEE299A3AAD2A2DE25B2B2B7A705
:100650006B4FCEE66E277D6543C1C3C493C3D29270
:10066000D2A468879B0D64B08C2C712E77B24B8B13
:10067000A4EEBB11C3435AF402C7B9D8A67DD12555
:1006800076A24C9F92BC6FD30E2C80EE3973870BF1
:10069000D067573783BDB2C1E1E1C212EFF3285AE8
:1006A000AEA686B855893E5B988F3CB25FB1FD5AC5
:1006B000D8AFA5FD1245FA6C9506E298DB43649825
:1006C0009903E01304C96A055BC35FB019D03733DF
:1006D000454E2C65D3AFC378EA335AC5B9C756A285
:1006E0006EE493284692CBD32E4D94FC0F1CB0EFB2
:1006F000C11DBA0425E659941230252BEFBE4BA735
:10070000E9E6B13CA28DEC19ACCCEDA175B1EFC717
:10071000DA819903F544EEC66081E38DD1B13AF9EF
:100720002092BDDCEDE985F3954F0FE6B92BC4A10E
:100730000907762DE99E1BC1B289069CC6258E311C
:10074000EBA5A454BB37AFFE0218309F0F781F658E
:10075000B707312499B179A0F0DED12DD7A1554F3B
:10076000660D4765C517FB2D73FBF95C65C9D0465F
:1007700082ACCC9303B3997A2788A6715E84C34474
:100780005B732E5BF3C94840C48EAA2F94F0360DDC
:10079000DDC3BABD68CB1A1CB4392A517FD90935DB
:1007A0007297EACAAC4F5B6B1BED5372E0DD416799
:1007B00027D1F23A590A7EDADAEDD2A23C9C58618E
:1007C000FF5CDCF760CF7533395B9B11ECB2235BC8
:1007D00066FDCC2C592B5200DA36172D9E871EC48D
:1007E00028101A82C75676E280028D960901FA44D3
:1007F00029DA9DA8B2E704E1022E01530C1DC9BEFF
:100800002EC50128ABB46C7C07D0630BC943D086DE
:10081000AB3BB8E2E75A19B772B7132D3E42A17F3E
:100820002022C5EE700A0970A7B41356402158F56E
:10083000560248834B272CC3206B3316EBC9640741
:10084000DE4CF704FBD723A201AFE661DFA0164020
:100850009127138D788982F312B0400BE8F8CD729E
:100860005E84233254812173EA5880101196CA3A6B
:1008700097DBE704746DF76A05B954A0E312DC0056
:1008800057992DD26CACC3213DCE2585D0A0113215
:10089000A1D6E5F8F80814267351757078506FB733
:1008A000700A39950D48708E81477A8695E672EA0E
:1008B000ADF44DEE24CD517BDF7BC72C611B56C9B7
:1008C00028941E8FD6A081E9888174D93B1089D6DF
:1008D00096601C76FF47632B9DB169F47523481D14
:1008E00076C0B817D9172F58CFEDAB46B1DADEA0D6
:1008F000A9C19FC7E77BE1626E361805AAAF8A657A
:100900003162188B258E0DC101E47F2531429B0693
:1009100084975B7E536CAF740CE4BEB28727BA81B8
:10092000E47800E00A3E97FB8263E5F5E258DE6278
:10093000CFA8FDC83A8B0DCB28B05A72AB2D308EA4
:1009400085214624B7D11F55C4E0650C7C4F99031F
:10095000FC4A8007F0148AE9A097587F123FA3C28F
:10096000F83C60001B451AFF0DA3A40BEE3D3F2091
:10097000A217502260F71C6405C0B460A64A3CE987
:100980002B40ACB2CE2B5B86B319131979FC4E8683
:100990000152815779C11ED3E1ADB359E7AC71C89B
:1009A000749EBB7BABF3C8AC769884F9E14FE764E7
:1009B0000065C2CBCD8065E15854BDED1ED356F81D
:1009C000BCA554B5097665ADE4B12CE060D368C52B
:1009D0009B7EFD1D737C2F2518DFC2E9783DA43A6C
:1009E0000ED3319EC6A94482B100204E6262661DBC
:1009F0006FB676041481D07A394605366479010CD5
:100A000038604B9D080C444D486D819CAB022465B9
:100A10006E9421BAEC110F0093F0E83A3FC1104DEB
:100A2000DDEAE8C6DE4B636B24E2A991A0123F9693
:100A3000AEED4EA357F844101819F98FF9B1E7033A
:100A4000D18B495AB0463CBFBA4C6ECEFF89A9083B
:100A5000E65417779BE4F6EDFB0D2216D4A1B717E9
:100A6000F393DB8B10FECF26DE62F7488B57D393D0
:100A7000DB2B5CB87CF7E1F2E7E4878FD7BFA0BB44
:100A80004CE9DFC9E4E6F20EA8D2AE14BB348C17F1
:100A90005320BCFD7CC3A785888D1FAF2FAFDFFE21
:100AA000E33AF9FCF6FDD587CFA8B6102737D71F54
:100AB00061926F215A991678D6359C758D67C1EA77
:100AC000DBF377C9C5F9DD156EC3476D3E9D7FDA4F
:100AD000249BBB9BCD2FB0B2B9C695C50B66203DFC
:100AE000E44494B55345AC8B15FCA4374C81066C9B
:100AF0001AC7B7E7D3C9D9BFA627AB7FC3352FF035
:100B00007BC5DF97F80D2040832B1C40EE42836BA2
:100B10001C403D49831F701069FE1F69A037F8090A
:100B200007B1DEE0EF38586A9E9FE918CDF38E06D4
:100B3000C8F33280064859A9989FCDE773B8F1C928
:100B40002455F1345AE6940E748588A1F2BF8707C4
:100B50006B2EFD3CD21F3E0F639244136C21F54C6B
:100B600064AE951E90716C39987201795EA08D3FCC
:100B700007262DCB19302FD32AA8EA2E00630F1099
:100B80003002C03806B6806C3678DC4BF866DB5332
:100B90004103DE032731221BDE5E098A6DED2CD86E
:100BA000D66D0066F05733960A57739AA729C50980
:100BB00007B0FEA9C3800035C70E2E04897CDA2158
:100BC00075AAAFC91516679A9A5821299A3CE7C3A6
:100BD0003C4BB183B6869B8A2A304588E507A3BB88
:100BE000E4AE49D0A42D985C20DAB66E29D5340B3A
:100BF000AD8010A63AEA9DFC90C27BF3A0AB034205
:100C00000AAC85C9C139D4BDE5001B98E682EB75F5
:100C1000709C63283454BA5D4359AE9B0332BC4A7E
:100C20005A0A08925CEC98C5B27E10E63601D6C32B
:100C3000E8D16ED956CFB65EE65AE7605D2789F6F1
:100C40007CCC020C11083060B3C3F2C3CC62996B48
:100C50007003C1C69BD7B94DB6978D669C474302BA
:100C60005041DFB837290E80866290DD78BB20F0D6
:100C7000DDA44F68A72B23502E596F8452E94E04F0
:100C800050ED402C320A03F1DF4885D6A4203DCC3C
:100C9000FB02AB2D60C6D01D685424C3170F02356C
:100CA0008151FBEB0CFBB4CDC9D83535768E6E5037
:100CB000FC94CD04F0D56E8BFA91D3A1F760E56971
:100CC000C0CF41F72254C1E687BF0076CF0BD8A82A
:100CD000F21764D570D2C035022D557853373D27B1
:100CE000F4B4D6DFB4F50E8459C2D5537CDB16A21A
:100CF0002EDC12842DD0713123FF28F4A3D058D1DB
:100D0000B3E0181435A8012D19AB968D2538904EF7
:100D1000F0288B02825106FB0DDA1F1C5E1DA79581
:100D2000D037383039DF8017B20EE9024821CBBE08
:100D30003473C63940871BD3E2A0620B3623BF252C
:100D40000CF2FB811BEDC85D5D07DB945EC72FC312
:100D5000DAF2936F52283220A4A60E07E64F240F32
:100D6000E48438AC04D5CA7795EA1B8CC5829D9A79
:100D70009014339BCF6997EDF37AC752FC8E933270
:100D80006AAE4215D2575F60634404EED979F3CA64
:100D90002DC0ABD847003214201D7A304479A827E3
:100DA00015EBD7EBD43060D5550118F7001BA4F72D
:100DB00085812EFBFC351592814E3EB81D35AA5C0F
:100DC000CF820F009E1000EF315FD862E7427DC7EF
:100DD0009D09EA075B1CD55DE29CDB110AEBCF0A9B
:100DE00010824D26836532289B1F11B490E88AB487
:100DF000C5D881ADAD239907EA8BAD1BDB4E1A6ECA
:100E0000D97730DF82D074D09AC1D804E9C17CB6DA
:100E10008A630A757AB0A058C783454CCA87C162F5
:100E2000B184EFF9CB0BD5070D6083E0B6B72E5236
:100E3000FDE451216256991895C26B90FAD19AD669
:100E40005532BAFE32D9195701FE6EF73DF91E71BF
:100E50006DE5B6C6DF427ABD6D4CF731B3B1B5F181
:100E6000A015C23B1E2B9C565E9F7EC0917A856F5B
:100E7000402BFC9A53C44BAE8F5C1ABAB23D71083A
:100E80009EBA8B420FA4660BCE19ABA2EC1F50CDBD
:100E9000BFF78A7AA8544F7FEBD69A437F24EEF4AB
:100EA000534C2C4C874B81FBD986D52A720DA2C19D
:100EB000CEFB1A2AD8DDE1197EFF09D817AEE792DA
:100EC00018F5BBB498C75AC933D756F1486D7F851A
:100ED000CDE1359282C9790209C6B913CB6409BE46
:100EE000662AFE3F6063A7E871473B04FF9791F5D0
:100EF0008746763AF71B445ADEE6727D96514F3E9E
:100F000043A5C00B400A7E277285A5B1C35DD3B44B
:100F1000392E80959FA0FE2111843E87575FF90CE2
:100F2000A0A9A345F1817AFDC687AFE7685884FE82
:100F30008E59ACA8480440A36C75B9E05459395B8C
:100F4000567DA97FD4AFDC21F2CACA51CDC96D3616
:100F500048B957F108D7866A38EAEC3D4726D2CD22
:100F60007AEA0AD1C3FB6309CA9E3E282E9DF36428
:100F7000A9AD748F36667D60A08291F262FE2B452A
:100F8000EF2F62E9A0FF2009E5D7DF4E43280FA726
:100F9000EBD92C992D678B6879AA9A343F0DC375CC
:100FA0003C79F92FC0C0A1C7690A000020002300C6
:100FB000260029002C002F00320000010000030150
:100FC000060109010F470044004500800135480033
:100FD0004400450020010D88008000810080000E43
:100FE0008A008000810020000F8C008000810008B2
:100FF000000CB300B000B10080033EB400B000B1FB
:10100000002003239800900091008000249A009013
:101010000091002000259C009000910008003BA852
:1010200000A000A10080003CAA00A000A1002000B8
:101030003DAC00A000A10008005B280120012101B7
:1010400080005C2A012001210120005D2C0120018B
:101050002101080028292A2B2C2D2E2F50515253C4
:10106000545556570400000004040404070400000B
:101070000204000204020400070402070400000244
:101080000404020400000404070400020404040031
:10109000040400040401070400040200000000002E
:1010A0000000060002026617046410650A02681058
:1010B00064400287106340036A1062400379106144
:1010C0001F076D1060400379105F0B0274105E40C3
:1010D0000376105D400379105C1C077C105B4002B6
:1010E00087105A140483105940028710581003893E
:1010F000105711048C105611049010550D029410C5
:10110000540B019B1053400196105212049710513A
:101110000B019B105010029C104F15039E100040B5
:1011200002A1104E0E02A3104D0901A5104C06009D
:10113000000011241FBECFEFD1E2DEBFCDBF00E023
:101140000CBF14BE0FB6F894A8958091600088611A
:1011500080936000109260000FBE12E0A0E0B2E049
:10116000EAEDF5E700E00BBF02C007900D92AA324E
:10117000B107D9F723E0AAE2B2E001C01D92A73976
:10118000B207E1F70E94AD2E0C94EB3A0C940000EC
:10119000CF93DF93CDB7DEB76C970FB6F894DEBF71
:1011A0000FBECDBF0E949A2E6B017C019E012F5F66
:1011B0003F4F1901AE01475F5F4F5D874C878091BC
:1011C0002602882309F445C50E949A2EC61AD70A1A
:1011D000E80AF90AF89480912602882351F08FEFEB
:1011E0008093260278940000F89480912602811161
:1011F000F9CF78940E949A2E46015701860E971EC9
:10120000A81EB91E8E8A9F8AA88EB98E81E080930F
:10121000260280915102882309F43EC010925102A7
:101220008FEF898364EF73E2C1010E94E52A8C018C
:10123000892B91F1D80156968C9182FFF3CF0E94B1
:101240009A2EF894F80137892689422F4B7F468BD6
:1012500078949F938F937F936F931F923F93217006
:101260001F922F9389811F928F93A1EFB0E1BF93BB
:10127000AF930E94C7192DB73EB7245F3F4F0FB6FB
:10128000F8943EBF0FBE2DBF64EF73E2C1010E9410
:10129000E52A8C01892B71F680915202882309F18D
:1012A000109252028FEF89830CEE10E167EF70E32A
:1012B000C1010E94E52AFC01892B99F0958D868D4C
:1012C0009813F4CFF894858D968D891709F49AC5F3
:1012D000789467EF70E3C1010E94E52AFC01892B35
:1012E00069F780914D02882309F44FC010924D0296
:1012F0008FEF8B87CE010B962C016AE57CE1C20152
:101300000E94E52A5C01892B09F43FC0D50159965A
:101310008C91599780FFF1CFF894F5016480758026
:1013200086809780818D8E7F818F789458968C915E
:10133000813009F4F1C308F4D1C3823009F491C3B8
:101340008330D9F6CB8419821A82910142E061E0A0
:10135000F501848995890E948D3109811A811027B0
:1013600001271027F02FF670EF2E20E030E0B401B7
:10137000A301C5010E94EC1C6AE57CE1C2010E9448
:10138000E52A5C01892B09F0C1CF80914B028823AB
:1013900009F44CC010924B028FEF8B879E01255FA2
:1013A0003F4F290102E0D02E8DE2E82E98E0F92E81
:1013B00066E077E1C2010E94E52A8C01892BB1F138
:1013C000D80152968C9182FFF3CF80FF97C0C8015D
:1013D0000E941337F801D28AE982FA82910142E031
:1013E00060E0848595850E948D31F8940E949A2E44
:1013F000D80118968D909D90AD90BC901B97DC0104
:10140000CB01880D991DAA1DBB1DF801848395830E
:10141000A683B783C8010E946537789466E077E1B8
:10142000C2010E94E52A8C01892B51F680914E025F
:10143000882309F468C010924E028FEF8B879E01BB
:10144000255F3F4F290166246A9443E0742E68EBC0
:101450007EE1C2010E94E52A6C01892B09F453C088
:10146000D60150968C9182FFF2CFF894F601448118
:101470005581668177811489108A148A78948085D1
:101480009185A285B3854A015B01881A990AAA0A47
:10149000BB0A8E869F86A88AB98AD601112389F055
:1014A00052968C91F601E80FF11D658A168A178A0B
:1014B0008D5FF601828B8E32D8F41150D601111156
:1014C000EFCF51968C91882309F496C2813009F4AC
:1014D00050C3823009F442C4D60152968C9190E0F8
:1014E0008E970CF4B4CF6B85C6010E94361FADCF2A
:1014F0006B85C6010E94361F1150E0CF6B85C80175
:101500000E94B61755CF80914A02882309F475C00E
:1015100010924A028FEF8B87FE013B962F0112E05B
:10152000A12E03E2E02E8AE6F82E94E0B92E20E404
:10153000C22E38E0D32E6FE273E1C2010E94E52A89
:101540008C01892B09F459C0D80152968C9182FFE5
:10155000F2CF80FF48C1C8010E941337F801A28A68
:10156000E9821A820484F585E02DA10162E0808180
:101570000E94B721F982BA82D8011C96ED91FC91A4
:101580001D97A10162E080810E94B721F982CA8281
:10159000D8011C96ED91FC911D97A10162E080811C
:1015A0000E94B721E982DA82D8011C96ED91FC9164
:1015B0001D97A10162E080810E94B721F8940E94EA
:1015C0009A2EF8012085318542855385DC01CB01B7
:1015D000820F931FA41FB51F84839583A683B783AF
:1015E000C8010E94653778946FE273E1C2010E94DE
:1015F000E52A8C01892B09F0A7CF8091540288231A
:10160000F9F0109254028FEF898305EB10E163E348
:1016100079E2C1010E94E52A009791F0DC01589619
:101620002C912F3FA1F7F894FC0126852111D7C2F8
:10163000789463E379E2C1010E94E52A009771F78B
:10164000809153028823D9F1109253028FEF89833E
:1016500000EB10E16DE976E2C1010E94E52A0097F6
:1016600071F1DC011E962C911E9723FFF3CFF894A5
:10167000FC012685277F268778949C01265E3F4FB4
:101680003F932F9350968C918695869586951F92C1
:101690008F9389811F928F931F930F930E94C71975
:1016A000EDB7FEB738960FB6F894FEBF0FBEEDBF8C
:1016B0006DE976E2C1010E94E52A009791F68091DA
:1016C0005802882309F446C0109258028FEF89838C
:1016D00006EA10E16AE27DE2C1010E94E52AFC010E
:1016E000892BC1F1848D80FFF5CFF89494812581F9
:1016F00036814781548965897689A789B08DF18CB7
:10170000E28CD38C848D8E7F848F7894DF92EF92DD
:10171000FF92BF93AF937F936F935F934F933F93EA
:101720002F939F9389811F928F931F930F930E94F2
:10173000C7192DB73EB7205F3F4F0FB6F8943EBF95
:101740000FBE2DBF6AE27DE2C1010E94E52AFC01C5
:10175000892B41F6A89580917302882329F080E4B3
:10176000809360001092730200913403002309F407
:1017700070C010912A0210FD11C0053008F469C034
:10178000B09074023B2D8BEF8B0D8C3308F488C224
:101790003E3709F4B6C3116010932A02402F50E07F
:1017A0006EE770E084E792E00E94BC3A009739F05F
:1017B0001E7F10932A028457924001E0080F11FD0A
:1017C0000BC0126010932A028AE395E09F938F93D7
:1017D0000E94C7190F900F90B02E2FEF80E0EB2CD6
:1017E000F12CD22E1DC06B85C8010E949D15A3CE81
:1017F00090E0402F50E0481B590BB701680F791F4C
:101800006C587D4F8C589D4F0E94D23A1092260200
:10181000802F9FB7F89430913403131761F09FBF66
:1018200010913403012F0B1919F79FB7F8943091D9
:1018300034031313F4CF2D2D009334039FBF2130B5
:1018400041F48AE395E09F938F930E94C7190F900C
:101850000F900E949A2E6B017C018E889F88A88C25
:10186000B98C681979098A099B0980903302909094
:101870003402A0903502B09036022FEF821A920AFD
:10188000A20AB20A8092330290923402A0923502E8
:10189000B092360240902F02509030026090310298
:1018A00070903202460E571E681E791E40922F021B
:1018B00050923002609231027092320261157105CD
:1018C00031E08307910508F0C9C19B01AC010E947A
:1018D0003B3ADC01CB0181509F4FAF4FBF4F892F67
:1018E0009A2FAB2FBB2740912B0250912C02609175
:1018F0002D0270912E02840F951FA61FB71F84170B
:101900009507A607B70718F48FEF9FEFDC018093C8
:101910002B0290932C02A0932D02B0932E024091A3
:1019200046025091470260914802709149025C540E
:101930006B437B4F2F2DC416D506E606270B27FDDC
:101940003ECCBF93AF939F938F937F926F925F92A2
:101950004F92BF92AF929F928F9289E191E19F93B4
:101960008F930E94C7198DB79EB70E960FB6F89445
:101970009EBF0FBE8DBF8091460290914702A091FD
:101980004802B0914902C816D906EA06FB0698F447
:101990008091420290914302A0914402B09145028D
:1019A0000196A11DB11D8093420290934302A09322
:1019B0004402B0934502C0924602D0924702E092A0
:1019C0004802F092490210922B0210922C021092BF
:1019D0002D0210922E0210922F02109230021092BD
:1019E000310210923202109233021092340210929D
:1019F000350210923602E3CB82E389831A820E9479
:101A00009A2E4B015C01910142E061E0F601848570
:101A100095850E948D310E949A2EDC01CB01881998
:101A20009909AA09BB0981329340A105B10508F0C3
:101A3000C8C0998197FD00C1EA80F12CEE0CFF1C13
:101A4000892F90E0982F8827990FE82AF92A950185
:101A500084014E855F8568897989C6010E94E91EE7
:101A60003BCDCB8481E089831A821B821C82910149
:101A700043E061E0848995890E948D3169817A8192
:101A80008B819C810E944B3ABB27A92F982F872FCF
:101A90009C01AD01442755272E873F87488B598BE2
:101AA00037E039831A82910142E061E0D501549612
:101AB0008D919C9155970E948D318A81982F9C7FA2
:101AC0008E858170E92EE82A0E851F85288939893F
:101AD000B401A301C5010E94EC1C0FCCCB84198278
:101AE0001A821B821C82910144E061E0F501848925
:101AF00095890E948D3169817A818B819C810E94B8
:101B00004B3AF62FF770EF2E8B019C01B401A30125
:101B1000C5010E94EC1CF1CB5B852CE029831A8265
:101B20001B821C82910144E061E0848995895B8F6E
:101B30000E948D3169817A818B819C810E944B3A10
:101B40006B017C01BFE0B9831A82910142E061E040
:101B5000F501848995890E948D319701860133278B
:101B60005B8DC52EEA80B401A301C5010E94EC1C67
:101B7000C4CB8FE789838EEF8A830E949A2E6A8B6B
:101B80007B8B8C8B9D8B910142E060E0D6011C9693
:101B90008D919C911D970E948D310E949A2E4B0130
:101BA0005C01DC01CB012A893B894C895D89821B60
:101BB000930BA40BB50B81329340A105B10508F43A
:101BC0009FC0D60152968C91F601E80FF11D658AEF
:101BD00092E0968B178A8D5FF601828B7DCC318DDA
:101BE000308F7894AC01415F5F4F5F934F931F92AA
:101BF0002F93FC0187891F928F9389811F928F9366
:101C00001F930F930E94C7192DB73EB7265F3F4F12
:101C10000FB6F8943EBF0FBE2DBFF9CC2C853D8585
:101C2000E217F30709F0DEC0809590E02A8530E0E6
:101C30008217930709F406C1D60152968C91F601DA
:101C4000E80FF11D658A768A178A8D5FF601828B0F
:101C500043CCCE8ADF8AE88EF98ED8CA6115710529
:101C600040E18407910508F04FCE8B019C010150A3
:101C70001F4F2F4F3F4F5527432F322F212F0E94A9
:101C80003B3ADC01CB0140912B0250912C02609138
:101C90002D0270912E02840F951FA61FB71F2FCE05
:101CA00020917502822F807F803109F071CD0B1554
:101CB00008F4CFCD8B2D90E0FC01ED58FD4F408115
:101CC0004E3709F065CDAC014F585D4F4A01FC011C
:101CD000EE58FD4FE080DA018C91F12CF82A6DEF7F
:101CE0006B0D84E792E02B8FBC8E0E94B02E2B8D63
:101CF0003C8DE816F90609F406C13091740248CD0E
:101D000080EC89831A82910142E061E0D6011C9641
:101D10008D919C911D970E948D3139818A81232F4D
:101D20002827922F92959F702927922F9695969506
:101D30009227292F2695922790FD98C036FFABC099
:101D4000F6018289E80FF11D658AA5E08A2E868A50
:101D5000178A8D5FD60152968C93BECBD6011C9606
:101D6000ED91FC911D9782809380A4808A8A9B8A42
:101D7000AC8A40E08A2DB4010E9448220E949A2E2B
:101D80004B015C0120E1820E911CA11CB11C0E9440
:101D90009A2E2B2D86169706A806290B27FFF7CF1C
:101DA000F89441E06A897B898C890E9448220E94CC
:101DB0009A2E4B015C017894D101EAE01D92EA95DC
:101DC000E9F7F4E8F98323E22A8391014AE061E02C
:101DD000D6011C968D919C911D970E948D31FE011C
:101DE000339685E09191892728E030E005C0880F7F
:101DF0002150310909F412CF87FFF9CF880FBDE1D7
:101E00008B27F6CF54896589908921893289438946
:101E10008F5F858F78946F935F934F933F932F934A
:101E20009F9389811F928F931F930F930E94C719CD
:101E30004DB75EB7465F5F4F0FB6F8945EBF0FBEFB
:101E40004DBF34CA898584FF1DC08B8187FD2FC09B
:101E5000D60152968C91F601E80FF11D658AB4E027
:101E6000B68B178A8D5FF601828B36CBF60182899D
:101E7000E80FF11D658A768A178A8D5FD601529622
:101E80008C932ACBD60152968C91F601E80FF11D66
:101E9000658AB5E0E5CF232F30E0322F2227330FBC
:101EA000330FB4E08B9FC00111247901CECD2E8574
:101EB0003F8548895989821A930AA40AB50A31E5EF
:101EC000831635E59306A104B10408F021C12C81E5
:101ED00030E0220F331F90E0982F8827990F822B34
:101EE000932BD60152963C91F601E30FF11D2F8101
:101EF00026952F73258B868B978B3D5FF601328B52
:101F0000EBCA01E069CC1D7F10932A028091000288
:101F1000281307C181E0820F8F70806180930002D7
:101F2000B6E78B16B2E09B0609F008F4BEC0E6E700
:101F3000F2E0BA8ECDB6DEB68F010F5F1F4F208163
:101F4000222309F4F0C0E9E3F5E08491281708F0B2
:101F5000EAC030E0220F331F220F331F220F331F3E
:101F6000F901E652FD4FE491ADB6BEB644E0E49F00
:101F7000A018B10811240FB6F894BEBE0FBEADBEB6
:101F80008DB79EB70196F901E452FD4F4491F901D6
:101F9000E352FD4F65917491FB01640F711DAC011B
:101FA000DF86CE869B8B8A8BE617F70709F481C004
:101FB0008016910608F46EC0A491A53028F1A730D0
:101FC00009F068C02801BFEF4B1A5B0AD801AC903A
:101FD00082010A0D111D8016910608F45BC0B12C18
:101FE000C12CD12CDA01AD92BD92CD92DC92139727
:101FF000612C712C14964D925D926D927C92179784
:10200000485F5F4F3196D0CF7A0184E0E80EF11C33
:1020100068019FEFC91AD90AD8011C91912F9F77A7
:10202000492E512C612C712C012F00760036A9F11C
:1020300017FF3DC086010F5F1F4FD80111978C918C
:10204000440C551C661C771C440C551C661C771CE4
:10205000440C551C661C771C440C551C661C771CD4
:10206000440C551C661C771C440C551C661C771CC4
:10207000440C551C661C771C982F9F77492A87FDB6
:10208000DACFDA014D925D926D927C921397A7019F
:1020900031968ACF87E00E94CA39B0EE4B2A552488
:1020A0005A94652C762CC4CFBA8C21E097CB86014C
:1020B000E8CFCE84DF848A899B894091270244231C
:1020C00031F0F901E552FD4FE491E0FF11C02152DA
:1020D0003D4FF90125913491F90119950FB6F89406
:1020E000DEBE0FBECDBE08151905F0F6F80122CFF1
:1020F000809128021F928F93A8E2B1E1BF93AF9322
:102100000E94C7190FB6F894DEBE0FBECDBEEBCF4E
:10211000D60152968C91F601E80FF11D658A91E087
:1021200058CD032F51CB85E00E94CA3980913C02E3
:1021300090913D029F938F9321E0309127023111BE
:1021400001C020E01F922F93209141022F932091F4
:1021500040022F9320913F022F9320913E022F9314
:1021600021E0892B09F420E01F922F938AE091E16E
:102170009F938F930E94C7198DB79EB70C960FB689
:10218000F8949EBF0FBE8DBF0895CF92DF92EF925D
:10219000FF920F931F930E949A2E9F938F937F938A
:1021A0006F9301E010E020E030E0C0904602D09054
:1021B0004702E0904802F09049026C157D058E05BB
:1021C0009F0518F000E010E0980180914202909184
:1021D0004302A0914402B0914502800F911FA21FBB
:1021E000B31FBF93AF939F938F9384E191E19F932C
:1021F0008F930E94C7198DB79EB70A960FB6F894B1
:102200009EBF0FBE8DBF1F910F91FF90EF90DF908B
:10221000CF9008950E949A2E9F938F937F936F93F0
:102220008FE091E19F938F930E94C7190F900F90B9
:102230000F900F900F900F9008950F931F93CF93CF
:10224000DF938C0180913C0290913D02892B09F033
:102250004BC060913B0270E0623071052CF482E06B
:1022600080933B0262E070E0E0913702F091380227
:102270004DB75EB741505F4F44275A959F01C0E06C
:10228000D0E0C901860F971F4817590730F12196F2
:102290009C01C115A4E0DA07A1F78E1B9F0B0E94D9
:1022A000A419D0933D02C0933C0290933A028093CC
:1022B00039020E94472BF80180819181A281B3816C
:1022C00080933E0290933F02A0934002B09341025C
:1022D000DF91CF911F910F910895209711F0C901BF
:1022E000DCCF80E10E94CA398DE00E94CA390F9389
:1022F0001F93FC01A489B58986898C9393A181E001
:10230000892783A3448155816681778180FF12C02C
:102310000085118522853385400F511F621F731F71
:1023200082FD12C0448355836683778381E01F91C9
:102330000F9108950485158526853785400F511F17
:10234000621F731F82FFEECF0089118922893389B2
:10235000872F401751076207830B87FDE3CF8BED73
:1023600091E193838283B901A801448355836683F5
:10237000778381E01F910F9108950895FC0180817A
:10238000A481B58140855185628573859FB7F89496
:10239000813061F0823019F04C939FBF08954D93C6
:1023A0005D936D937C9313979FBF089511965C93F3
:1023B0004E939FBF08958F929F92AF92BF92CF92FC
:1023C000DF92EF92FF921F93CF93DF93EC01EF8C9C
:1023D000F8A0E114F10409F4F0C0F70180819181C3
:1023E00098A38F8F86809780A084B18411E0811498
:1023F0009104A104B10409F4A1C06C897D898E897E
:10240000412F0E94482280914F0290915002F70183
:1024100091838083F0925002E0924F0281149104E4
:10242000A104B104E9F08B8D9C8DAD8DBE8D881615
:102430009906AA06BB06A0F44F89588D698D7A8D3E
:10244000411551056105710509F45BC08C819D81C1
:10245000AE81BF81480F591F6A1F7B1F166022C0C3
:102460008BA131E081149104A104B10409F068C08A
:1024700084FB992790F921E09227391709F443C08A
:102480004F89588D698D7A8D41155105610571050A
:10249000D1F18C819D81AE81BF81480F591F6A1F88
:1024A0007B1F1460EF8DF8A1309709F077C02BA146
:1024B000488B598B6A8B7B8B2071212B2BA311FFAF
:1024C0005FC0880D991DAA1DBB1D12FD52C027E7D4
:1024D00031E13B832A838C839D83AE83BF838886CF
:1024E0009986AA86BB868B8D9C8DAD8DBE8D8819F5
:1024F0009909AA09BB098C879D87AE87BF8781E0B0
:1025000011C012608BA1EF8DF8A13097D9F4188A11
:10251000198A1A8A1B8A8071812B8BA3812F827062
:1025200011FD34C0DF91CF911F91FF90EF90DF90AC
:10253000CF90BF90AF909F908F90089510E05DCFA7
:1025400030E096CF4281538164817581488B598BED
:102550006A8B7B8B8071912F9460892B8BA311FFE9
:102560000FC08C819D81AE81BF81880D991DAA1DF0
:10257000BB1D2B2F84179507A607270B27FDA7CF79
:102580004C835D836E837F8381E0CCCF40E050E05D
:10259000BA018C819D81AE81BF8193CFC280D380EF
:1025A000E480F580872F4C155D056E058F0987FD4A
:1025B00007C08BA1B701A601C9CF85E10E94CA3926
:1025C00083E10E94CA39FC0185818F9384818F93B6
:1025D00080811F928F9385E091E19F938F930E945A
:1025E000C7190F900F900F900F900F900F900895B4
:1025F000DC012C911496ED91FC9115973FB7F8945E
:102600002130E9F02230B1F0808190E0A0E0B0E02C
:102610003FBFBF93AF939F938F9380E091E19F93D0
:102620008F930E94C7190F900F900F900F900F90EB
:102630000F90089580819181A281B381E9CF80813B
:102640009181A0E0B0E0E4CFFC0192899460928B8C
:102650001092260281E080934A0280E008950F9351
:102660001F93CF93DF938C0144E450E06FE273E15A
:10267000FC0180810E94092BEC0184E293E19B83A1
:102680008A836CE974E3F80184810E942F2B9D8773
:102690008C87DF91CF911F910F9108950F931F9316
:1026A000CF93DF9300D0CDB7DEB722E72B83DC01D9
:1026B0001C96ED91FC911D978E010F5F1F4F22E03C
:1026C000AE014D5F5F4F61E080810E941F218981D3
:1026D0008F7190E0982F88272A81822B0F900F907E
:1026E0000F90DF91CF911F910F9108954F925F92BC
:1026F0006F927F928F929F92AF92BF92CF92DF9212
:10270000EF92FF920F931F93CF93DF9300D0CDB73B
:10271000DEB76C016FE273E1DC018C910E942F2B1C
:102720007C010E949A2E4B015C0182E78B83D701CA
:102730001C96ED91FC911D978E010F5F1F4F22E0BB
:10274000AE014D5F5F4F61E080810E941F210E94BA
:102750009A2E2B013C0129812F712983F701818950
:102760008F9380898F9330E0322F22278A81282B04
:10277000ABEABAEA0E94523A969587959695879564
:102780009F938F9383891F928F9387858F938685DD
:102790008F93481859086A087B087F926F925F925E
:1027A0004F92BF92AF929F928F92D6018C911F92BF
:1027B0008F938FEB90E19F938F930E94C7190FB671
:1027C000F894DEBF0FBECDBF0F900F900F90DF913A
:1027D000CF911F910F91FF90EF90DF90CF90BF901E
:1027E000AF909F908F907F906F905F904F900895E3
:1027F000CF93DF93EC0144969F938F938B891F9225
:102800008F938F858F938E858F931F926F938AEB13
:1028100090E19F938F930E94C7191B8A8E859F8595
:1028200001969F878E878DB79EB70A960FB6F8944C
:102830009EBF0FBE8DBFDF91CF9108956F927F92A3
:102840008F92AF92BF92CF92DF92EF92FF920F934F
:102850001F93CF93DF937C01DC01DC9168EB7EE179
:102860008D2F0E942F2B8C01F701C481B084A1848D
:10287000DC0151968C90B2E08B1609F44FC00E9497
:102880009A2E6B017C012B2D3A2D4C2F61E0D80143
:102890001C968D919C911D970E948D310E949A2EBD
:1028A0008B019C010C191D092E093F0901321340AF
:1028B0002105310558F54C2F50E0E1E08E1659F115
:1028C000AF92BF925F934F93FF92EF92DF92CF92BE
:1028D0001F92DF938EEC90E19F938F930E94C71914
:1028E0008DB79EB70C960FB6F8949EBF0FBE8DBFE6
:1028F000DF91CF911F910F91FF90EF90DF90CF90DC
:10290000BF90AF908F907F906F90089540E050E01F
:10291000E1E08E12D5CF6B017C01D2CFDC011C9699
:10292000ED91FC911D9762807380848040E0882D3A
:10293000B3010E9448220E949A2E6B017C01B0E1F3
:10294000CB0ED11CE11CF11C0E949A2E2F2DC61615
:10295000D706E806290B27FFF7CFF89441E0882D2A
:10296000B3010E9448220E949A2E6B017C01789448
:102970002B2D3A2D4C2F61E0F801848595850E941E
:102980008D314C2F50E09CCFCF93DF93DC011E960E
:102990009C911E9751962C9151971C96EC911C97E7
:1029A0001D96FC911D971F968C911F97C82F5096CE
:1029B0008C91D82F88E005C09083660F908381505A
:1029C00049F067FFF9CF288360959083660F908365
:1029D0008150B9F7DF91CF9108950F931F93CF9353
:1029E000DF93EC016CE075E188810E942F2B8C0154
:1029F0006AEF0E94C4146C81611105C0DF91CF9110
:102A00001F910F91089548855985C801DF91CF9195
:102A10001F910F910C94492ACF92DF92EF92FF926F
:102A20000F931F93CF93DF938C0142E150E06CE052
:102A300075E1FC0180810E94092BEC0160E0F80146
:102A400080850E94482D6C877D878E8760E0F80125
:102A500084850E94482D6F87788B898B61E0F8010F
:102A600084810E94482D68EFCE010E94C41460E268
:102A7000CE010E94C414F8940E949A2E6B017C012E
:102A800060E0CE010E94C4140E949A2E789468835C
:102A900079838A839B83DC01CB018C199D09AE0964
:102AA000BF09F801C088D188E288F3888C159D059C
:102AB000AE05BF0540F4C81AD90AEA0AFB0ACC825F
:102AC000DD82EE82FF82F801048915892689378923
:102AD00080179107A207B30740F4081B190B2A0BB4
:102AE0003B0B088719872A873B87DF91CF911F917E
:102AF0000F91FF90EF90DF90CF9008950F931F9369
:102B0000CF93DF93EC016CE075E188810E942F2B5D
:102B10008C0168EF0E94C4146C81611105C0DF91C3
:102B2000CF911F910F91089548855985C801DF9174
:102B3000CF911F910F910C94492AAF92BF92CF92DF
:102B4000DF92EF92FF920F931F93CF93DF931F9229
:102B5000CDB7DEB77C01A62E0E944E136C018AEF22
:102B6000C81681E0D80650F0D70150968D919C91FF
:102B70005197019651969C938E93509784E7898341
:102B8000F7012389022F10E080E390E0801B910B76
:102B9000C816D90608F03EC08C2D9BEA899F812D6E
:102BA000112486958695982F990F890FB82EBB0C06
:102BB000A1F5D70152968C9181FF20C0C7010E94D8
:102BC0001337F70182898B7F828BF8940E949A2EAB
:102BD000D70118960D911D912D913C911B97DC0109
:102BE000CB01800F911FA21FB31FF7018483958330
:102BF000A683B783C7010E94653778940F90DF9151
:102C0000CF911F910F91FF90EF90DF90CF90BF90E9
:102C1000AF90089580E3821BC0CF0C5E1F4F0E0D56
:102C20001F1DD7011C96ED91FC911D972B2DAE0118
:102C30004F5F5F4F61E080810E941F21F701838910
:102C40008B0D838B8B32D8F48BEAB89EB12C112478
:102C5000B694B6944B2D50E09601ABEABAEA0E94C6
:102C6000523A96958795969587954817590708F093
:102C7000A0CF1092260281E080934A02BFCF6A2D36
:102C8000C7010E94F813E0CF4F925F926F927F923C
:102C90008F929F92AF92BF92CF92DF92FF920F934B
:102CA0001F93CF93DF931F921F92CDB7DEB76C01B6
:102CB000DC01FC906FE273E18F2D0E942F2B8C01C1
:102CC000F60180859185A285B385892B8A2B8B2B74
:102CD00099F1C8010E941337F60184819581A6817C
:102CE000B781F80184839583A683B783F601808535
:102CF0009185A285B385F80180879187A287B387E4
:102D000081E0828B118A108A17861686138AC80181
:102D10000E9465370F900F90DF91CF911F910F9117
:102D2000FF90DF90CF90BF90AF909F908F907F905B
:102D30006F905F904F900895C8010E941337D8019B
:102D400052961C9283E289831A820E949A2E2B014A
:102D50003C01D8011C96ED91FC911D97AE014F5F8F
:102D60005F4F62E080810E94B7210E949A2E4B0142
:102D70005C01C8010E944E13069748F06F2DC801F0
:102D80000E949D15C8010E944E130697B8F7F801DE
:102D90008389882339F06F2DC8010E94F813D80168
:102DA00053968C91F80191899F9390899F931F92DC
:102DB0001F921F928F9387858F9386858F93D5015E
:102DC000C40184199509A609B709BF93AF939F93CE
:102DD0008F937F926F925F924F921F92FF928FEB31
:102DE00090E19F938F930E94C7190FB6F894DEBFAE
:102DF0000FBECDBF8FCFFC0192899460928B109251
:102E0000260281E080934B0280E008950F931F9388
:102E1000CF93DF938C0146E450E066E077E1FC015C
:102E200080810E94092BEC018BEF96E19B838A83C2
:102E300061E270E3F80184810E942F2B9D878C87CB
:102E4000DF91CF911F910F9108958F929F92AF9232
:102E5000BF92EF92FF920F931F93CF93DF931F9236
:102E60001F92CDB7DEB78C0166E077E1FC0180816F
:102E70000E942F2B7C0189EB89831A820E949A2E53
:102E80004B015C019E012F5F3F4F42E061E0F70183
:102E9000848595850E948D310E949A2EF7012189A3
:102EA0002F9320892F932A811F922F9323891F927A
:102EB0002F9327852F9326852F93DC01CB0188192B
:102EC0009909AA09BB09BF93AF939F938F93BF92B0
:102ED000AF929F928F92F80180811F928F9388ED1D
:102EE00090E19F938F930E94C7190FB6F894DEBFAD
:102EF0000FBECDBF0F900F90DF91CF911F910F911B
:102F0000FF90EF90BF90AF909F908F900895CF93D8
:102F1000DF93EC0144969F938F938B891F928F933D
:102F20008F858F938E858F931F926F9383ED90E1A2
:102F30009F938F930E94C7191B8A8E859F85019648
:102F40009F878E878DB79EB70A960FB6F8949EBF5F
:102F50000FBE8DBFDF91CF910895FC014481558153
:102F600066817781208580810C94AB2BCF92DF9294
:102F7000EF92FF920F931F93CF93DF93CDB7DEB7FE
:102F80002B970FB6F894DEBF0FBECDBF8C01F62E87
:102F90009E012F5F3F4F89E0F90111928A95E9F771
:102FA00082EF898349E061E0F801848595850E947C
:102FB0008D31F801838990E09C012C5E3F4FE20F38
:102FC000F31F3B81232F207F29F1203F19F12FEFA1
:102FD0002483238322832183F801E80FF91F248BA4
:102FE000F80183898B5F838B8E3208F06FC0F80104
:102FF000828981FD4DC02B960FB6F894DEBF0FBEBF
:10300000CDBFDF91CF911F910F91FF90EF90DF9097
:10301000CF9008954D81242F207FB1F55F81252F1A
:10302000207F11F0203F99F62885203981F62985E7
:103030002F77213260F6D801A80FB91F6A81549604
:103040006C938C8181838E818283852F90E03F7188
:10305000BC01660F771F62957295707F7627607F3F
:103060007627362B3383880F991F880F991F807618
:103070004F71482B4483F80183898B5F838B3EEF2C
:10308000320F8E3268F124C0203F09F0A0CFC6CFA6
:10309000C8010E941337F80182898B7F828BF894D4
:1030A0000E949A2EF801C084D184E284F384DC016A
:1030B000CB018C0D9D1DAE1DBF1D84839583A68302
:1030C000B783C8010E946537789495CF3EEF20E022
:1030D0006F2DC8012B873A870E9487173A852B8569
:1030E0002F3130F0F801808991890196918B808B86
:1030F0003F3108F07CCF1092260281E080934B0292
:103100007ACF4F925F926F927F928F929F92AF92FF
:10311000BF92DF92EF92FF920F931F93CF93DF93B3
:103120001F921F92CDB7DEB77C01FC01D08066E014
:1031300077E18D2D0E942F2B8C01F70180859185E1
:10314000A285B385892B8A2B8B2B99F1C8010E940C
:103150001337F70184819581A681B781F8018483B3
:103160009583A683B783F70180859185A285B38572
:10317000F80180879187A287B38781E0828B118ACB
:10318000108A17861686138AC8010E9465370F9029
:103190000F90DF91CF911F910F91FF90EF90DF90F3
:1031A000BF90AF909F908F907F906F905F904F9067
:1031B0000895C8010E941337F801128A8DE28983AD
:1031C0001A820E949A2E4B015C019E012F5F3F4F95
:1031D00042E060E0F801848595850E948D310E946F
:1031E0009A2E2B013C0181E2F82E99EBE92E03C0C7
:1031F000FA94FF20C1F0E9821A829E012F5F3F4FAF
:1032000042E061E0F801848595850E948D318A81D4
:103210008F7749F0813260F76D2DC8010E94B61793
:10322000FA94F110E8CFF8018389882331F06D2DED
:10323000C8010E948717F8018389F80191899F933B
:1032400090899F939A811F929F931F928F93878556
:103250008F9386858F93D301C20188199909AA0992
:10326000BB09BF93AF939F938F93BF92AF929F92EF
:103270008F921F92DF9288ED90E19F938F930E942F
:10328000C7190FB6F894DEBF0FBECDBF80CF8BE15C
:103290000E94CA39DF92EF92FF920F931F93CF9350
:1032A000DF93EC01D88883E08D15B0F161E270E323
:1032B00088810E942F2B7C018AE090E00E94A41953
:1032C0008C0161E08C810E940F22F8016083718380
:1032D000828360E088850E94482DF80163837483AF
:1032E000858360E08C850E94482DF8016683778392
:1032F0008087D186F7018581982F967079F4F70140
:103300001183008382608583DF91CF911F910F919C
:10331000FF90EF90DF9008950E9447190E9447198F
:103320002FB7F89480914F0290915002009749F086
:10333000FC01408151815093500240934F022FBFB6
:1033400008958FE00E94CA39CF93DF93C09137026E
:10335000D0913802AE01480F591F2DB73EB721500A
:103360003F4F22273A952417350770F050933802C3
:1033700040933702AC0160E070E0CE010E94E43A75
:10338000CE01DF91CF91089581E10E94CA393F9229
:103390004F925F926F927F928F929F92AF92BF9265
:1033A000CF92DF92EF92FF920F931F93CF93DF9311
:1033B0001F921F92CDB7DEB780914C028823A1F0F7
:1033C0000F900F90DF91CF911F910F91FF90EF9091
:1033D000DF90CF90BF90AF909F908F907F906F9035
:1033E0005F904F903F90089581E080934C028E0152
:1033F000075E1F4F20919603309095032315C0F46C
:10340000432D50E0CF88D88C3FEFC31AD30AF60182
:103410008491BA01680F711DCB016136710554F1B9
:10342000821B91098136910560F010924C02C8CF41
:10343000109295031092960340E050E0312C20E06A
:10344000E1CF1092950360919603361AE32CF12C8C
:1034500070E06B5C7C4FA70185E393E00E94D23A59
:1034600010929603309295038091C1008062809300
:10347000C100A701CA018B5C9C4F7C01F601A4919D
:10348000A63008F42CC1AA2EB12CF3E0AF1AB10873
:10349000A80EB91EEF89F88D32969491EF89F88DB8
:1034A0003396C590D49097012D5F3F4F3A8329837F
:1034B000EF89F88D8491D70112968C934601890E7D
:1034C000911CC814D90409F439C129813A81A21682
:1034D000B30640F0F6018491853009F4C3C0C8F109
:1034E000883018F086E00E94CA39F80120813181C5
:1034F000250149815A81441A550A052C000C660899
:103500007708A901330F660B770B4416550666063C
:10351000770608F4D5C069807A809FEF691A790A26
:10352000A981BA814C932801B4E04B0E511CF801DB
:10353000228133818A01B901863009F4C4C0C301F4
:103540000E94C93A9301200F311F3A8329838201D7
:10355000B3C0823008F4BBC0833009F4E5C0F80181
:103560004081518160E070E00E5F1F4F2A013B01F6
:10357000B0E24B0E511C611C711CE0E84E16510468
:103580006104710408F4CDC02A013B01F0E15F0E33
:10359000611C711C411420E452066104710408F49A
:1035A00048C02A013B0138E0630E711C41145104EC
:1035B00080E26806710460F12A013B019CEF791AF0
:1035C000411451046104A0E17A0688F02A013B010C
:1035D0003CE176946794579447943A95D1F7842DBB
:1035E0008068A981BA818C931196BA83A9832A0134
:1035F0003B0125E176946794579447942A95D1F737
:10360000842D8068A981BA818C931196BA83A9838D
:103610002A013B019EE076946794579447949A95CB
:10362000D1F7842D8068A981BA818C931196BA83D1
:10363000A983E981FA8131962A013B0187E07694DA
:103640006794579447948A95D1F7842D8068A9810F
:10365000BA818C939F012F5F3F4F3A8329834F7725
:1036600040832AC098012E5F3F4FF801A081B181AD
:1036700089819A8101966C91662399F08A159B0540
:1036800080F4FD01319604C0A816B90609F447C0BC
:103690000196AC0141505109DA016C9361916111BD
:1036A000F3CFAC0169817A81461B570B4150DB0196
:1036B0004C939A83898389013FEFC31AD30A01CFC0
:1036C000B301A20128CFC3010E94B33A3BCFD80176
:1036D0004D915D916D917C910C5F1F4F47CF1A2FDB
:1036E000D7011C938091000211968C936DEF610FAE
:1036F000C7010E94B02EE10EF11CF70133979083B1
:103700003196808331968EE78083A32DA10FA093FD
:1037100095038091C10080628093C10086CEC5016F
:10372000C0CFE981FA8196CFD8014D915C91052EE9
:10373000000C660B770B0E5F1F4F18CF09811A81A3
:103740000E191F0913E0100FCBCF80912702882399
:1037500029F0823011F010922702089582E00E9431
:10376000CA3988E00E94CA39CF92DF92EF92FF9265
:10377000FC0140815181628173812481E8EAFFE08C
:1037800085919591A591B491481759076A077B07D0
:1037900070F56A017B01C20ED11CE11CF11C8C1575
:1037A0009D05AE05BF0500F5841B90E09A01215CE4
:1037B0003A4F3F932F939F938F937F936F935F9392
:1037C0004F938EE191E19F938F930E94C7198DB71C
:1037D0009EB70A960FB6F8949EBF0FBE8DBFFF909E
:1037E000EF90DF90CF900895822F90E0DFCF80E0C0
:1037F00090E0DCCF8EE00E94CA39FC0110922602D4
:1038000081E080934D02818D8160818F448155815B
:103810006681778180859185A285B385840F951F08
:10382000A61FB71F84839583A683B78381E008957D
:103830000F931F93CF93DF938C016AE57CE1FC012A
:1038400080810E942F2BEC010E941337F8018481A4
:103850009581A681B7818C839D83AE83BF8380854C
:103860009185A285B38588879987AA87BB87892B8D
:103870008A2B8B2B29F4DF91CF911F910F91089503
:1038800084859585A685B7858C879D87AE87BF87FC
:1038900080899189A289B389888B998BAA8BBB8BEC
:1038A00084898E8B1F8ACE01DF91CF911F910F915A
:1038B0000C946537FF920F931F93CF93DF93EC0126
:1038C000F88483E08F15E0F04AE150E06AE57CE19E
:1038D00088810E94092B8C018DEF9BE1F801938375
:1038E000828361E270E38C810E942F2BF801958B1B
:1038F000848BF08EDF91CF911F910F91FF900895EF
:103900008DE10E94CA39CF92DF92FF920F931F93ED
:10391000CF93DF93EC0161E270E38C810E942F2B47
:103920006C01F8840F2D10E0A8014D5F5F4F63E834
:103930007CE188810E94092BFC01D182C082F28245
:103940006C857D85A8010396DF91CF911F910F9122
:10395000FF90DF90CF900C94C93ACF93DF93EC01A6
:1039600061E270E388810E942F2B288539854C8184
:1039700060E0DF91CF910C948D31FF920F931F93F4
:10398000CF93DF93EC01188161E270E3812F0E94F5
:103990002F2B0C81F884C9852F2D3C2F402F61E0FF
:1039A0000E948D31CF93FF921F920F931F921F930E
:1039B00087EE90E19F938F930E94C7198DB79EB7B2
:1039C00008960FB6F8949EBF0FBE8DBFDF91CF91C2
:1039D0001F910F91FF9008958F929F92AF92BF9287
:1039E000CF92EF920F931F93CF93DF93EC01480197
:1039F00059011F92EF92BF92AF929F920F937F93C4
:103A00006F935F934F931F92CF9282EE90E19F93BB
:103A10008F930E94C7198DB79EB70E960FB6F89474
:103A20009EBF0FBE8DBFE11009C08C859D85AE8500
:103A3000BF8588169906AA06BB0688F48F898F5F12
:103A40008F8B9E898917B0F4DF91CF911F910F91D1
:103A5000EF90CF90BF90AF909F908F9008958889FE
:103A60009989AA89BB8988159905AA05BB0530F3F0
:103A70001F8AEACF809127028111FACF8CE10E9440
:103A8000CA398F929F92AF92BF92FF920F931F936A
:103A9000CF93DF938C0164ED7DE1FC0180810E9476
:103AA0002F2BEC010E9413378F8D98A1892B09F0E1
:103AB0005AC0F80104811BA1FF24F394002339F1BB
:103AC0006C897D898E894F2D0E94482221E0011149
:103AD0001CC014FB882780F991E08927281741F042
:103AE0008F89988DA98DBA8D892B8A2B8B2B89F480
:103AF00010711F291BA3DF91CF911F910F91FF9090
:103B0000BF90AF909F908F90089520E0E2CFF12C6E
:103B1000D7CF0E949A2E8F88988CA98CBA8CDC0102
:103B2000CB01880D991DAA1DBB1D888B998BAA8B73
:103B3000BB8B8C839D83AE83BF838BED91E19B8395
:103B40008A83812F80718460182F1F291BA3CE01C7
:103B5000DF91CF911F910F91FF90BF90AF909F90F9
:103B60008F900C94653782E10E94CA39CF93DF931E
:103B7000EC0164ED7DE188810E942F2BF894FC011B
:103B8000278D30A1232B69F44C815D816E817F816B
:103B9000FC01438F548F658F768F7894DF91CF919E
:103BA000089584E10E94CA39CF92DF92EF92CF93B9
:103BB000DF93EC0161E088859985AA85BB85892B17
:103BC0008A2B8B2B09F460E08C810E94482D6B01BD
:103BD000E82E44E250E064ED7DE188810E94092BEB
:103BE000FC01C48AD58AE68A21E0488559856A8520
:103BF0007B85452B462B472B09F420E04C855D85C2
:103C00006E857F85452B462B472BB1F430E0232B67
:103C1000FC0123A3488959896A897B89478B508F86
:103C2000618F728F6AE070E04F96DF91CF91EF90D5
:103C3000DF90CF900C94912B30E1E9CFCF92DF92BF
:103C4000EF92FF920F931F93CF93DF938C0164ED5C
:103C50007DE1DC018C910E942F2BEC010E949019D8
:103C6000FC01D8011496CD90DD90ED90FC90179753
:103C7000C282D382E482F58218964D915D916D9156
:103C80007C911B974683578360877187F8941182D4
:103C900010828F8D98A1892B81F0A9A1BAA1ED93F3
:103CA000FC93FAA3E9A37894DF91CF911F910F9130
:103CB000FF90EF90DF90CF900895FAA3E9A3F8A3C7
:103CC000EF8F8BA182FD25C0C88AD98AEA8AFB8A38
:103CD000982F94609BA381FD10C0CE010E941337E2
:103CE000CC82DD82EE82FF828BED91E19B838A8321
:103CF000CE010E9465377894D7CF4C815D816E816B
:103D00007F81872F4C155D056E058F0987FFE5CFF5
:103D1000F2CF488959896A897B89972F4C155D05AF
:103D20006E059F0997FFD0CF83E10E94CA39FC013D
:103D3000808982FD19C08460808B1092260281E008
:103D400080934E024481558166817781808591857B
:103D5000A285B385840F951FA61FB71F8483958303
:103D6000A683B78381E0089584898F5F848BE5CF34
:103D7000FF920F931F93CF93DF93EC01F88483E0BE
:103D80008F1508F145E450E068EB7EE188810E94E0
:103D9000092B8C0187E99EE1F8019383828361E21C
:103DA00070E38C810E942F2BF80195878487FC019A
:103DB000858180FF0BC0F801F18ADF91CF911F91BF
:103DC0000F91FF90089582E20E94CA3981E20E9419
:103DD000CA39EF92FF920F931F93FC01041B150B3E
:103DE000260B370B83898823C1F09FEF980F41E0A2
:103DF00050E002C0440F551F9A95E2F7052E000CC3
:103E0000660B770B040F151F261F371F04C036954E
:103E10002795179507958A95D2F78289DF01A80F14
:103E2000B11D0F3F11052105310578F455960C930E
:103E300055975696EC9256975796FC928D5F828BCB
:103E40001F910F91FF90EF9008959FEF55969C93CF
:103E5000559791E056969C93569757961C928D5F76
:103E6000828B1F910F91FF90EF900895CF93DF9376
:103E7000EC0145969F938F938A891F928F938F852C
:103E80008F938E858F931F926F9384EC90E19F9315
:103E90008F930E94C7191A8A8E859F8501969F87E6
:103EA0008E878DB79EB70A960FB6F8949EBF0FBE49
:103EB0008DBFDF91CF910895FF920F931F93CF9302
:103EC000DF938C01FC01F08068EB7EE18F2D0E9476
:103ED0002F2BEC010E941337188AF80180859185F9
:103EE000A285B385892B8A2B8B2B01F58A898111B9
:103EF00018C08F858F938E858F931F92FF9289ECC8
:103F000090E19F938F930E94C7190F900F900F908D
:103F10000F900F900F90DF91CF911F910F91FF9015
:103F200008956F2DCE010E94361FE3CFF8018481E2
:103F30009581A681B7818C839D83AE83BF83808565
:103F40009185A285B38588879987AA87BB871F86B5
:103F50001E861A8A84858B8BCE01DF91CF911F91AB
:103F60000F91FF900C94653780E20E94CA390F933D
:103F70001F93CF93DF93FC01A189B2898D919C910E
:103F80001197928B818B16968D919C911797C08576
:103F9000D185228521113FC02FB7F894AC01552758
:103FA000598348832FBF20914F02309150021196C0
:103FB0003C932E93B0935002A0934F02A189B289F3
:103FC000109759F5278530898217930741F083852B
:103FD0009485A585B6850097A105B10531F480E0EB
:103FE000DF91CF911F910F91089544815581668192
:103FF0007781840F951FA61FB71F84839583A6839F
:10400000B78384EB9FE19383828381E0DF91CF913B
:104010001F910F9108958883C6CF12964D915D919F
:104020006D917C911597278530898217930741F010
:1040300083859485A585B6850097A105B10551F4C2
:10404000448355836683778381E0DF91CF911F910D
:104050000F9108950481158126813781800F911F6A
:10406000A21FB31F2B2F84179507A607270B27FF27
:10407000E7CF8FE10E94CA39EF92FF920F931F930F
:10408000CF93DF937C0166EB70E2DC018C910E94A0
:104090002F2B8C010E949019EC01F70184819581EE
:1040A000A681B7818A839B83AC83BD8380859185FC
:1040B0009F838E83F89419821882D80151968D912E
:1040C0009C915297892BB9F15396ED91FC9154979D
:1040D000D183C0835496DC93CE93539780E090E0D5
:1040E0007894892B39F4DF91CF911F910F91FF9034
:1040F000EF900895C8010E941337D80112968D9150
:104100009C911397845B9F41F1F08A819B81AC81E4
:10411000BD8127EB3FE1F8013383228384839583BC
:10412000A683B783C801DF91CF911F910F91FF90B4
:10413000EF900C946537F801D48BC38BD28BC18B75
:1041400081E090E0CDCF8A819B81AC81BD81F80177
:104150004481558166817781272F481759076A075F
:104160002B0B27FFD6CF8FE10E94CA39CF92DF9267
:10417000EF92CF93DF93EC01488559856A857B8563
:104180002C858C810E94AB2B6B01E82E45E150E021
:1041900066EB70E288810E94092BFC01C086D18603
:1041A000E28688899989908B87878C899D89AE89D9
:1041B000BF8983879487A587B68787EB9FE1938321
:1041C000828368E070E0CF014196DF91CF91EF905C
:1041D000DF90CF900C94912BCF92DF92EF92FF92D1
:1041E0006B017C0109C00E949A2E292F6C157D0558
:1041F0008E052F0927FF09C08091BC0087FFF3CFF0
:10420000FF90EF90DF90CF9008958FE20E94CA391F
:1042100024EA2093BC000E94EC208091B90090E039
:10422000A0E0B0E080319105A105B10521F008972B
:10423000A105B10509F408958EE20E94CA394F9292
:104240005F927F928F929F92AF92BF92CF92DF92B6
:10425000EF92FF920F931F93CF93DF931F921F92C2
:10426000CDB7DEB7782EB62E822E49835A830E94B0
:104270009A2E6B017C0120E8C20E28E3D21E21E0B9
:10428000E21EF11CC701B6010E9408217092BB001A
:1042900084E88093BC00C701B6010E94EC20AA24E8
:1042A000AA94AB0C49815A81BB20B9F02A01B12CE8
:1042B0008FEFA81AB80AA40CB51C94E8992EF20145
:1042C00081912F018093BB009092BC00C701B60181
:1042D0000E94EC20A414B50491F7C701B6010E9416
:1042E0000821872D81608093BB0084E88093BC0007
:1042F000C701B6010E94EC2077247A94780C8820BC
:1043000009F15801872C84EC982E882071F0909246
:10431000BC00C701B6010E94EC208091BB00F501F2
:1043200081935F018A948110F2CF070D111D84E8FB
:104330008093BC00C701B6010E94EC208091BB00B5
:10434000F801808384E98093BC000F900F90DF9187
:10435000CF911F910F91FF90EF90DF90CF90BF9082
:10436000AF909F908F907F905F904F9008958F9225
:104370009F92BF92CF92DF92EF92FF920F931F9383
:10438000CF93DF931F921F92CDB7DEB7082F162F62
:1043900049835A830E949A2E6B017C0120E8C20E49
:1043A00028E3D21E21E0E21EF11CC701B6010E94E3
:1043B00008210093BB0084E88093BC00C701B601CC
:1043C0000E94EC200FEF010F49815A811123B1F0B7
:1043D0004A0110E00F5F1F4F080D191D84E8B82E29
:1043E000F40181914F018093BB00B092BC00C701E2
:1043F000B6010E94EC208016910691F784E9809323
:10440000BC000F900F90DF91CF911F910F91FF9003
:10441000EF90DF90CF90BF909F908F90089580365F
:10442000A0F567FD32C0E82FE695E695E695F0E049
:10443000EE0FFF1FE455F04FA591B491109729F1AD
:10444000877021E030E0A90102C0440F551F8A9512
:10445000E2F7CA014FB7F89412963C91129766237F
:1044600081F0382B282F209512963C9312971196A5
:104470003C911197232311962C9311974FBFBD01A7
:104480000895282F20953223EFCF8AE20E94CA395F
:10449000FB012FB7F8949281411105C080958923C3
:1044A00082832FBF0895892B82832FBF08951F9386
:1044B000CF93DF93EC01162FAC89BD891097B9F02B
:1044C0001296ED91FC9113978D919C9111979D8B74
:1044D0008C8B11961C921E9213961C921E92129710
:1044E000612FCD011995AC89BD89109749F71092BC
:1044F000260281E080935102DF91CF911F910895B0
:10450000FC013897968990FF08C0608D678B9A7F71
:104510009460968BCF010E94572280E00895FC01A1
:1045200086898460868B1092260281E080935102F6
:10453000448155816681778180899189A289B38977
:10454000840F951FA61FB71F84839583A683B78307
:1045500081E00895FC01A085B1859C918285892325
:10456000D1F0818D80958170C9F4838D815031F1B6
:10457000838F448155816681778187859089A18960
:10458000B289840F951FA61FB71F84839583A683C6
:10459000B78381E00895818D817039F38FEC9EE2BD
:1045A0009383828383899489A589B689848395833B
:1045B000A683B783828D838F81E00895A789B08D0C
:1045C00056969C915697892F817090FFE3CF648D0A
:1045D00057966C9357979A7F946056969C935697EC
:1045E000CD010E94572280E00895FC0180917A005D
:1045F00086FF0EC084819581A681B7818853984F2C
:10460000AF4FBF4F84839583A683B78381E008951E
:10461000828D90910902981781F09F3F59F78093FE
:104620000902982F987090937B0087708064809324
:104630007C0087ED80937A00DDCF8FEF80930902B5
:104640002091780030917900858D968D891780F5BD
:1046500044895589240F351F8F5F358B248B858FB7
:10466000891760F18689978928173907C8F1808DE5
:10467000918D82179307A0F1138E1092260281E08C
:10468000809352024089518962897389808591851E
:10469000A285B385840F951FA61FB71F808B918BB2
:1046A000A28BB38B84839583A683B78381E008951F
:1046B00081E0358B248B858F8917A0F64481558145
:1046C0006681778184859585A685B785840F951F3A
:1046D000A61FB71F84839583A683B78381E00895BF
:1046E000838D8F5F838F948D891738F28091270295
:1046F0008111C2CF8AE10E94CA39EF92FF921F93C3
:10470000CF93DF937C01FC01108164EF73E2812F72
:104710000E942F2BEC01F8948E8980FF09C0F701CD
:1047200064816F8B8A7F84608E8BCE010E945722BA
:10473000CE010E941337CE0108960E9413371E8ABD
:104740008F8978941F921F921F921F921F928F93AE
:104750001F921F921F921F9381EF90E19F938F935F
:104760000E94C7198DB79EB70C960FB6F8949EBFDE
:104770000FBE8DBFDF91CF911F91FF90EF900895F5
:10478000CF93FC01C0816AE874E28C2F0E942F2B2A
:10479000FC01F894818D3389448955896689789420
:1047A000A085B1852C919285922321E009F420E027
:1047B0001F922F936F935F934F933F9386958170D2
:1047C0001F928F931F92CF9386EF90E19F938F93C9
:1047D0000E94C7198DB79EB70C960FB6F8949EBF6E
:1047E0000FBE8DBFCF91089549E150E064EF73E2B1
:1047F000FC0180810E94092B2FE832E2FC01338307
:10480000228320E832E2338722870895EF92FF92D5
:104810000F931F93CF93DF938C0164EF73E2FC013E
:1048200080810E942F2BEC01F8948E8980FF13C0A9
:104830007E01F8E0EF0EF11CC7010E941337F8016A
:1048400084819581A681B7818C879D87AE87BF873C
:10485000C7010E9465377894DF91CF911F910F9126
:10486000FF90EF9008950F931F93CF93DF938C01E8
:104870006AE874E2FC0180810E942F2BEC010E9407
:104880001337F80184819581A681B7818C839D833C
:10489000AE83BF8380859185A285B3858F87988BF2
:1048A000A98BBA8B84858A8F882361F1F8014089AE
:1048B0005189628973894B875C876D877E872FEC6E
:1048C0003EE23B832A838B8F84899589A689B789A9
:1048D000892B8A2B8B2BA1F482E0898F64EF73E202
:1048E000F801808D0E942F2B988F8F8BF801848D7B
:1048F0008C8FCE01DF91CF911F910F910C94653772
:1049000083E0EBCF188E1F8A198EDF91CF911F9114
:104910000F9108950F931F93CF93DF93EC014DE117
:1049200050E06AE874E288810E94092B8C01688556
:104930008C810E940F22F801608771878287DF9146
:10494000CF911F910F910895CF93DF93EC010E94B7
:104950001337CE0108960E941337EC89FD893097F2
:1049600051F0908181811382128211821082E92F8D
:10497000F82F3097B1F71D8A1C8A188E1F8A1E8A5D
:10498000DF91CF9108950F931F93CF93DF938C0105
:1049900064EF73E2FC0180810E942F2BEC01F894FC
:1049A0000E94A42481E08E8BF80184819581A681E8
:1049B000B7818C839D83AE83BF8380859185A285DB
:1049C000B385888B998BAA8BBB8B892B8A2B8B2BDE
:1049D00019F0CE010E946537F8018485888F78949C
:1049E000DF91CF911F910F910895CF92DF92EF92B7
:1049F000FF92CF93DF93FC01A085B18582858C93D4
:104A0000968581E089278687C82FC170C688D78898
:104A1000E08CF18C97859F5FD1899D1708F05FC06E
:104A2000892F869586958695DF01A80FB11D5A9628
:104A30002C9130E0892F877002C0359527958A9593
:104A4000E2F72170B701A601C217A9F033C0892F80
:104A5000869586958695DF01A80FB11D5A962C91F3
:104A600030E0892F877002C0359527958A95E2F747
:104A70002170C2131FC04C0D5D1D6E1D7F1D9F5FF9
:104A80009D1728F38AEE97E2938382838481958130
:104A9000A681B781480F591F6A1F7B1F4483558326
:104AA0006683778381E0DF91CF91FF90EF90DF9075
:104AB000CF900895978784819581A681B781480F0B
:104AC000591F6A1F7B1F448355836683778381E068
:104AD000DF91CF91FF90EF90DF90CF900895B701D5
:104AE000A601D0CFCF92DF92EF92FF920F931F9348
:104AF000CF93DF93EC01E885F9858A8580830E9456
:104B00009A2E3E8521E023272E872F852F5F2F8722
:104B1000213009F45CC02530E0F40C811D812E8128
:104B20003F814A895B896C897D89DB01CA01800FDD
:104B3000911FA21FB31F8C839D83AE83BF8381E02F
:104B4000DF91CF911F910F91FF90EF90DF90CF9069
:104B50000895CC80DD80EE80FF80AB01BC014C1954
:104B60005D096E097F098E899F89A88DB98D481BC3
:104B7000590B6A0B7B0BDB01CA010296A11DB11D0B
:104B8000B7FD34C0B595A79597958795B595A79529
:104B9000979587950A891B892C893D89800F911FDC
:104BA000A21FB31F8E8B9F8BA88FB98F25EF34E286
:104BB0003B832A834C0D5D1D6E1D7F1D840F951F49
:104BC000A61FB71F8C839D83AE83BF83B8CF0C8194
:104BD0001D812E813F81AB01BC01401B510B620B3B
:104BE000730B4E8B5F8B688F798F9BCFDB01CA0174
:104BF0000596A11DB11DC6CFEF92FF920F931F9393
:104C0000CF93DF937C016DE976E2FC0180810E9405
:104C10002F2BEC011E8511FF07C0DF91CF911F9153
:104C20000F91FF90EF900895F701048160857185E1
:104C3000F4840B3008F045C0FAE0FF1508F441C0D9
:104C4000402F50E04A960E94C93A1F8611731260A5
:104C50001E87802F880F880F880F898BFF0CFF0C11
:104C6000FF0CF88A002349F08A8D8F738A3229F469
:104C700082E795E29B838A830CC08A899B89AC89F1
:104C8000BD898E8B9F8BA88FB98F85EF94E29B8314
:104C90008A83F8940E949A2EDC01CB018058934FAE
:104CA000AF4FBF4F8C839D83AE83BF83CE010E94E5
:104CB00065377894DF91CF911F910F91FF90EF901E
:104CC000089586E20E94CA390F931F93CF93DF9312
:104CD0008C0163E379E2DC018C910E942F2BEC01C3
:104CE000D8011496EC918F898E0F8F8BF8948E8556
:104CF000E817D0F48E1BF0E03F96EC0FFD1FDE01AD
:104D00001F962FEF280F30E0205F3F4F2C0F3D1FE5
:104D100091919D93A217B307D9F78E877894DF916D
:104D2000CF911F910F9108951E868EEF888F7894F2
:104D3000DF91CF911F910F9108957F928F929F9253
:104D4000AF92BF92CF92DF92EF92FF920F931F9399
:104D5000CF93DF93EC0144E250E06DE976E2888185
:104D60000E94092B8C0178848C809D80AE80BF804E
:104D7000CC84DD84EE84FF8461E0711001C060E0CA
:104D8000882D0E940F22F80163877487858761E070
:104D90008C2D0E94482DF801608771878287888951
:104DA0009989AA89BB89828B938BA48BB58B71104F
:104DB00018C091E08C149D04AE04BF04C1F080E0E3
:104DC000892BF8018687DF91CF911F910F91FF907A
:104DD000EF90DF90CF90BF90AF909F908F907F909B
:104DE000089591E18C149D04AE04BF0441F780E264
:104DF000E7CF0F931F93CF93DF938C0163E379E2A7
:104E0000FC0180810E942F2BEC010E941337F801D6
:104E100084819581A681B7818C839D83AE83BF8376
:104E20004085518562857385488759876A877B8766
:104E300080898D878C871E861F8A8EEF888F848558
:104E4000898F87FD10C0452B462B472B29F4DF9116
:104E5000CF911F910F910895CE01DF91CF911F91B6
:104E60000F910C94653783E20E94CA39CF93DF9388
:104E7000EC018E8585FD0DC0688579858A8541E0C8
:104E80000E9448228E85807381608E87DF91CF914A
:104E90000895E885F9858A852FB7F8949281982B33
:104EA00092839181892B81832FBF8E85807381604E
:104EB0008E87DF91CF910895CF93DF93EC01EB853F
:104EC000FC8550818F85982F977021E030E001C0DC
:104ED000220F9A95EAF7982F969596959695FE014A
:104EE000E90FF11D928D4D854523D9F0292B228F95
:104EF0008F5F98898917E0F48F874C815D816E817F
:104F00007F818E899F89A88DB98D840F951FA61FDB
:104F1000B71F8C839D83AE83BF8381E0DF91CF91E8
:104F2000089520952923228F8F5F9889891720F370
:104F3000CE010E9436278E8588608E8710922602C9
:104F400081E08093530280E0DF91CF910895CF9369
:104F5000DF93EC01EB85FC8590818D858923E9F059
:104F60008E8584608E878F8591E0980F9F8780342F
:104F700008F54C815D816E817F818E899F89A88D26
:104F8000B98D840F951FA61FB71F8C839D83AE8399
:104F9000BF8381E0DF91CF9108958E8582FFE3CFBB
:104FA0001F868CE597E29B838A83CE01DF91CF91A8
:104FB0000C945C27188ACE010E9436278E85886063
:104FC0008E871092260281E08093530280E0DF9169
:104FD000CF9108951F93CF93DF93EC01188911238C
:104FE000B1F18E8585FD23C01F8687EA97E29B83FA
:104FF0008A838E899F89A88DB98D880F991FAA1FD2
:10500000BB1F880F991FAA1FBB1F4C815D816E813A
:105010007F81840F951FA61FB71F8C839D83AE834E
:10502000BF8311E0812FDF91CF911F910895EB8510
:10503000FC859D852FB7F89484FF18C08281892B49
:10504000909582838181982391832FBFCDCF0E9439
:1050500036278E8588608E871092260281E08093A5
:105060005302812FDF91CF911F91089582819095F6
:105070008923E7CFCF93DF93EC016A8D662309F490
:1050800057C0FC017D9650E031E020E0DF0112972F
:105090000D90BC91A02D4C919081942309F0532B3D
:1050A0002F5F330F33962613F1CF2C85922F952740
:1050B00029F08D85852780959823D9F4888D5D8783
:1050C00087FD03C0815070F1888F4C815D816E81B6
:1050D0007F8188859985AA85BB85840F951FA61F2A
:1050E000B71F8C839D83AE83BF8381E0DF91CF9117
:1050F0000895982F909529238523822B8C879E8550
:105100009830E0F621E0290F2E87FE01E90FF11D0E
:1051100087871092260281E0809354028FEF888F58
:105120005D87D3CF1092260291E090935402CCCFAA
:1051300050E0BBCF7F928F929F92AF92BF92CF925F
:10514000DF92EF92FF920F931F93CF93DF93FC01B7
:10515000A484B5848685178580887188728953896F
:105160004489358926899789C08CD18C028D908499
:105170009626D5018C9394FC25C095FC29C096FCFD
:105180002DC097FC31C08C93A62FA295A07FA0873D
:105190006A27F501808364FD36C065FD30C066FD79
:1051A00026C067FD29C08083DF91CF911F910F91A9
:1051B000FF90EF90DF90CF90BF90AF909F908F9037
:1051C0007F900895E12EF82CE701788295FED7CFE5
:1051D000E72EF52EE701488396FED3CFE32EF22E7D
:1051E000E701988397FECFCFE6010883CCCFA32FAA
:1051F000B22F9C9367FFD7CFD6010C93D4CFA72FA4
:10520000B52F4C93CCCFA12FB82D7C92C6CF0F9346
:105210001F93CF93DF938C0163E379E2DC018C91E0
:105220000E942F2BFC01D80114969C91828D981717
:10523000B8F4292F30E0E901CC0FDD1F2C0F3D1F02
:10524000EF01C20FD31FF801648580850E940F22F1
:105250006B8F7C8F8D8FDF91CF911F910F91089570
:1052600084E20E94CA39CF93FC01C481C930B8F4EA
:105270004C2F50E09A01220F331F420F531F455EFF
:105280005F4F63E379E2FC0180810E94092BFC01FE
:10529000C28F2AE338E233832283CF91089585E2D7
:1052A0000E94CA394F925F926F927F929F92AF9203
:1052B000BF92CF92DF92EF92FF920F931F93CF9303
:1052C000DF935C01FC01C080D180E280F3804480E8
:1052D0005580668077800FEF060F6623F9F0EA01AC
:1052E00010E00F5F1F4F040F151F99900E949A2E18
:1052F000DC01CB018C199D09AE09BF098415950508
:10530000A605B70598F3692DC5010E949A280E9449
:105310009A2E6B017C01C017D10739F7F501C082C5
:10532000D182E282F382DF91CF911F910F91FF90A2
:10533000EF90DF90CF90BF90AF909F907F906F9055
:105340005F904F9008950F931F93CF93DF93EC01DD
:105350006BED79E288810E942F2B8C01FC01618525
:105360007285838541E00E944822488559856C8179
:10537000C801DF91CF911F910F910C9452290F9387
:105380001F93CF93DF93EC016BED79E288810E944C
:105390002F2B8C01FC0161857285838540E00E9482
:1053A0004822488559856C81C801DF91CF911F91B2
:1053B0000F910C945229CF92DF92EF92FF920F93AC
:1053C0001F93CF93DF93EC014BE150E06BED79E25B
:1053D00088810E94092B8C0160E08C810E94482DFD
:1053E000F80161877287838760E088850E94482D75
:1053F000F80164877587868760E08C850E94482D58
:10540000F8016787708B818B60E088890E94482D46
:10541000F801628B738B848B60E08C890E94482D2D
:10542000F801658B768B878B60E0888D0E94482D14
:10543000F801608F718F828FF8940E949A2E6B0111
:105440007C0160E0C8010E949A280E949A2E7894FC
:10545000DC01CB018C199D09AE09BF09CC8CDD8C18
:10546000EE8CFF8C8C159D05AE05BF0548F4C81A5F
:10547000D90AEA0AFB0AF801C482D582E682F782D9
:10548000DF91CF911F910F91FF90EF90DF90CF9020
:1054900008954F925F926F927F928F929F92AF92F8
:1054A000BF92CF92DF92EF92FF920F931F93CF9311
:1054B000DF938C01962E5A01FC014080518062805E
:1054C0007380C480D580E680F780EA012196FA01D6
:1054D0008080682D607F0E94C4140E949A2EDC0197
:1054E000CB0184199509A609B7098C159D05AE0550
:1054F000BF0598F3682D6295607FC8010E94C414AF
:105500000E949A2E6B017C01F801408451846284D0
:105510007384F1E09F1639F19A949A94892D90E062
:105520000296A80EB91E9990692D607FC8010E944D
:10553000C4140E949A2EDC01CB018C199D09AE097E
:10554000BF0984159505A605B70598F3692D6295E1
:10555000607FC8010E94C4140E949A2E6B017C01D6
:10556000CA15DB0501F7F801C082D182E282F3821D
:10557000DF91CF911F910F91FF90EF90DF90CF902F
:10558000BF90AF909F908F907F906F905F904F9063
:105590000895CF932091560230915702232B91F416
:1055A000FC01C0818C2F90E0880F991F880F991FF4
:1055B0000E94A4199093570280935602C0935502FB
:1055C000CF9108958AE00E94CA39CF93DF93EC010E
:1055D000988140915502A0915602B09157020BC09C
:1055E000FD0184E0989FE00DF11D1124208131819F
:1055F0002617370741F09F5F941790F380E090E003
:10560000DF91CF910895988382819381DF91CF912B
:105610000895CF93DF93909155028917E8F4C091D4
:105620005602D091570294E0899FC00DD11D1124DC
:1056300088819981892B81F480913C0290913D026F
:10564000892B51F479836883CA010E94A4199B8332
:105650008A83DF91CF9108958BE00E94CA3990919F
:105660005502891788F4E0915602F091570294E0B0
:10567000899FE00DF11D1124808191818617970784
:1056800019F48281938108958CE00E94CA39CF92E7
:10569000DF92EF92FF92CF93DF93C0913C02D091C3
:1056A0003D022097B9F121976E01E12CF12CA091D8
:1056B0003B02B0E02097D9F020E030E040E050E03D
:1056C000BA018091390290913A02FC01E20FF31F76
:1056D0004F5F5F4F6F4F7F4F2A0F3B1F820F931F0C
:1056E000918380834C155D056E057F0550F3809195
:1056F000390290913A02CA9FF001CB9FF00DDA9FD8
:10570000F00D1124E80FF91F1182108290935002BE
:1057100080934F02DF91CF91FF90EF90DF90CF9079
:105720000895FC0113821282118210826F3F71056D
:1057300009F07CF480913C0290913D02892B49F460
:1057400080913B0290E08617970714F460933B0228
:1057500008950E94FA1BCF92DF92EF92FF921F935F
:10576000CF93DF936A017B0164EC7FE0FB019491AE
:10577000981749F0675F7F4FF0E164357F07B1F715
:1057800083E30E94CA39FB013896949191FF1AC0B5
:1057900030EAC3163FE5D306E104F10408F483C000
:1057A000C0E8CC16CEE7DC06C1E0EC06F10408F058
:1057B00090C0D0E4CD16DFEBDD06E104F104C8F4BF
:1057C00014E022C0F8EBCF16F7E4DF06E104F104A1
:1057D00090F0A0ECCA16AEE3DA06A1E0EA06F10406
:1057E00008F475C0C114BBEFDB06B4E0EB06F104AE
:1057F00038F315E009C037EFC31638E0D306E104EB
:10580000F10408F05FC011E0FB013396A591B4915B
:10581000FB013596C591D491FB0137963491E82F61
:10582000E695E695E695F0E0EE0FFF1FE455F04FA4
:10583000459154918770E1E0F0E07F0101C0EE0CEA
:105840008A95EAF7FB013196C590D490892F817033
:10585000A038B10509F44BC0EFB7F8949881977060
:1058600011F0191341C0188381112EC09FB7F8940D
:10587000622F70E0E601798368839FBF9C9131605D
:10588000392B3C93DA0111969C911197E92A1196D4
:10589000EC92EFBFB601DF91CF911F91FF90EF9097
:1058A000DF90CF900895A8EDCA16A7E2DA06E104CA
:1058B000F10468F4B7EFCB16B8E0DB06E104F104BD
:1058C00008F4A1CF12E0A0CFE6012883D7CF13E0E0
:1058D0009BCFC114EBEFDE06E4E0EE06F10410F41A
:1058E00016E092CF17E090CF81E30E94CA3982E39D
:1058F0000E94CA39B0990FC08091590290915A0202
:10590000019610920602109205029093080280936D
:10591000070281E0089581E086BB80915902909151
:105920005A02019690935A028093590220E030E87F
:105930003093060220930502909308028093070299
:1059400081E00895CF93DF93FC0184819581A68146
:10595000B7814489558966897789C58DD68D388107
:10596000C42FC170278D232331E009F430E0C31721
:1059700061F04F5F5F4F6F4F7F4F448B558B668B4E
:10598000778B808F918FA28FB38F408951896289E5
:105990007389272F481759076A072B0B27FF18C051
:1059A000248D2160248F4485558566857785840FF5
:1059B000951FA61FB71F808B918BA28BB38B109264
:1059C000260281E08093580284819581A681B78167
:1059D0004085518562857385840F951FA61FB71F6B
:1059E00084839583A683B78381E0DF91CF91089567
:1059F0000F931F93CF93DF938C016AE27DE2FC014A
:105A000080810E942F2BEC010E941337F8018481C2
:105A10009581A681B7818C839D83AE83BF834085AA
:105A2000518562857385488759876A877B87448556
:105A30005585668577854C875D876E877F87888BE0
:105A4000998BAA8BBB8BCE01DF91CF911F910F91C8
:105A50000C9465370F931F93CF93DF93EC0140E2D3
:105A600050E06AE27DE288810E94092B8C01688502
:105A70008C810E940F22F801658F768F878F82EAD2
:105A80009CE293838283DF91CF911F910F910895C0
:105A9000803678F5E82FE695E695E695F0E0EE0F8E
:105AA000FF1FE455F04FA591B491109711F1877045
:105AB00021E030E0A90102C0440F551F8A95E2F7AA
:105AC000CA013FB7F89412962C91129761110FC03A
:105AD0004095242312962C93129711962C9111978E
